:100AD0005765676968743A006B67002020670020DB
:100AE0003E3E205468652056616C75652069733AF6
:020AF0002000E4
:090B140007380000000000000099
:10065C008F2D8E2C8D2B8C2A7B407A42790F780033
:10066C0012045BE47B0AFAF9F812045BAF038F38CF
:10067C007BA07A8679017800AF2DAE2CAD2BAC2AFD
:10068C0012045BE47B0AFAF9F812045BAF038F39AE
:10069C00E47B107A27F9F8AF2DAE2CAD2BAC2A12D7
:1006AC00045BE47B0AFAF9F812045BAF038F3AE4BB
:1006BC007BE87A03F9F8AF2DAE2CAD2BAC2A1204E3
:1006CC005BE47B0AFAF9F812045BAF038F3BE47B23
:1006DC0064FAF9F8AF2DAE2CAD2BAC2A12045BE406
:1006EC007B0AFAF9F812045BAF038F3CE47B0AFA3D
:1006FC00F9F8AF2DAE2CAD2BAC2A12045BE47B0ABF
:10070C00FAF9F812045BAF038F3DE47B0AFAF9F8AF
:10071C00AF2DAE2CAD2BAC2A12045BAF038F3E2257
:10072C00E4F529AF1CAE1BAD1AAC1912065C7F8028
:10073C00120B7874382529F8E62430FF120B870544
:10074C0029E529C3940740EBE4F529AF20AE1FAD92
:10075C001EAC1D12065C7F20120B8774382529F8FD
:10076C00E62430FF120B870529E529C3940740EBDB
:10077C00E4F529AF24AE23AD22AC2112065C7FC078
:10078C00120B787BFF7A0A79D0120A62E47FE87E3A
:10079C0003FDFCAB24AA23A922A821D31204FB40FD
:1007AC002774382529F8E62430FF120B87E529B485
:1007BC0002057F2E120B870529E529C3940640E11B
:1007CC007BFF7A0A79D8801B74382529F8E6243007
:1007DC00FF120B870529E529C3940640EB7BFF7AB2
:0607EC000A79DB120A622B
:0107F20022E4
:0609A9008B198A1A891B5C
:1009AF00E4F51C7BFF7A0A79DF120A87AB19AA1AC2
:1009BF00A91BAF1C051C8F827583001203F2243014
:0B09CF00FF120BB3E51CC3940640E1CF
:0109DA0022FA
:100924007F007E007D007C00E4FBD2A10000C2A019
:1009340030A106EBC3943240F70000E4FBD2A000E0
:100944007801120522C2A030A10DEF2401FFE43E7C
:10095400FEE43DFDE43CFC0BBB18E2D2A000ED64D8
:0409640080FDC2A0B0
:01096800226C
:1007F300E4F536F537F536120924E53625E025E02C
:10080300241EF812054E000536E536C3940540E76D
:10081300E4F537E4F536C374049537FFE536C39F33
:100823005062E53625E025E02422F8120535E53649
:1008330025E025E0241EF8120541D312051140409E
:10084300E53625E025E0241EF81205358F358E3474
:100853008D338C32E53625E025E02422F812053568
:10086300E53625E025E0241EF812054EAF35AE34FB
:10087300AD33AC32E53625E025E02422F812054EEF
:10088300053680920537E53764047087AF29AE28B3
:04089300AD27AC26BB
:01089700223E
:10096900E4F51CF51BF51AF519F51D751D1012078F
:10097900F3E51C2FF51CE51B3EF51BE51A3DF51AA1
:10098900E5193CF519151DE51DD3940050E0E47BEC
:0F09990010FAF9F8AF1CAE1BAD1AAC1912045BC3
:0109A800222C
:100B4400EFD39400400B7EC77D01DDFEDEFA1F80EB
:010B5400EFB1
:010B5500227D
:100AAC0030900320911D7F0A120B4430900320914B
:100ABC0012209004B2968005209102B2973090FDDE
:040ACC003091FD2246
:100AF2002057656C636F6D6520546F2055736520B8
:100B020000456C656374726F6E6963205363616C38
:020B120065007C
:100B56007580FFC2A6D2A5D2A7AF80C2A7EF20E7B5
:010B6600F698
:010B6700226B
:100A3800C2A58E807F017E00120A49D2A77F057E5B
:010A480000AD
:100A4900D3EF9400EE9400400F7DC77C01DCFEDDFE
:080A5900FAEF1F70EB1E80E8AC
:010A61002272
:0F0B7800AE07120B56C2A7C2A6120A38C2A72296
:0F0B8700AE07120B56C2A7D2A6120A38C2A72277
:1009DB007F38120B787F0C120B787F06120B787F07
:1009EB0001120B787F80120B787BFF7A0A79F21257
:1009FB000A627FC0120B787BFF7A0B7903020A62C3
:100A62008B2A8A2B892CAB2AAA2BA92C1203D96098
:100A720013052CE52C7002052B14F91203D9FF1271
:050A82000B8780E22259
:100B68000000000000000000000000003F0000003E
:10055A00E4F50878097C00FD7BFF7A0B7968FE7F59
:10056A00101203B375B0FF75A0FF7590FF7580FF79
:10057A001209DB120B30120BA5D2AF1209698F0CCC
:10058A008E0B8D0A8C0978197C007D007B007A001D
:10059A0079097E007F101203B312072C0508E508BB
:1005AA00C3940A40D6120AAC1209698F108E0F8DB5
:1005BA000E8C0DAF0CAE0BAD0AAC09AB10AA0FA98D
:1005CA000EA80DD31205114046E510950CF510E55D
:1005DA000F950BF50FE50E950AF50EE50D9509F544
:1005EA000DAF10AE0FAD0EFCE4120224AB18AA1721
:1005FA00A916A81512011E7BCD7ACC794C783D122A
:10060A00002D1202628F148E138D128C118009E450
:10061A00F514F513F512F511E54230E11E5342FDCA
:10062A0078197C007D007B007A0079097E007F10B2
:10063A001203B312072C7F0A12000EE54220E203CE
:10064A000205AF5342FB7B007A0079381209A902EE
:02065A0005AFEA
:0C0B1D0001420001400A013F140141E8C0
:0E0BA500438901758CD8758AEFD2A9D28C22B3
:03000B00020A0BDB
:100A0B00C0E0758CD8758AEF1541153FE54070062F
:100A1B0075400A434201E53F7006753F144342029D
:0D0A2B00E54170067541E8434204D0E03219
:10000E007D64EF600F1DED60087E0A1EEE60F680C7
:04001E00FA1F80EE57
:0100220022BB
:060B29000144000143003D
:100B3000438920439850438780758DF3758BF3D29A
:040B4000ACD28E2283
:03002300020B9637
:0F0B9600309806C29875440132C29975430132F6
:0A0BB3008F99E54360FCE4F543224E
:100A87008B1D8A1E891FAB1DAA1EA91F1203D960C1
:100A970013051FE51F7002051E14F91203D9FF1273
:050AA7000BB380E22208
:100026000202CEE86480F8E933E83360110460F038
:10003600ED33EC337009E8FCE9FDEAFEEBFF220440
:1000460060DED3EB9FEA9EE99DE8C2E78CF0C2F73B
:1000560095F0400CE8CCF8E9CDF9EACEFAEBCFFB07
:1000660012029985D0F05804700320D5B3E80470C5
:10007600075002B2D50202D892D5EC0460F7E4CC60
:10008600C0E0C398F8603B94186008400DD0E0FBD0
:100096000202B0E4FBFAC9FC8028E830E406E4C9B1
:1000A600FBE4CAFCE830E305E4C9CACBFCE8540724
:1000B6006010F8C3E913F9EA13FAEB13FBEC13FC2F
:1000C600D8F130F52FC3E49CFCEF9BFFEE9AFEEDD2
:1000D60099FDD0E0FBEF4E4D4C701222DB0302027D
:1000E600D5EC2CFCEF33FFEE33FEED33FDED30E7C0
:1000F600EB0202B0EF2BFFEE3AFEED39FDD0E0FB4E
:1001060050130BBB00030202D8ED13FDEE13FEEFF6
:0801160013FFEC13FC0202B020
:10011E00EC4D6011E8497017ED33EC3304600DE4DB
:10012E00FCFFFEFD22E933E8330470F80202CE1222
:10013E00029958046009E4CC248150062850090223
:10014E0002D82840030202D5C0E0EB4A7044B980C1
:10015E0006D0E0FB0202C4EF4E701CBD8008EBFF20
:10016E00EAFEE9FD80EBE98DF0A4FEE5F002020760
:10017E00E9CDF9EAFEEBFFEF89F0A4FCE5F0CE89BC
:10018E00F0A42EFFE435F0CD89F0A42DFEE435F079
:10019E008067EF4E7005BD80D780C3EF8BF0A4ACA7
:1001AE00F0EE8BF0A42CFCE435F0F8EF8AF0A42CE2
:1001BE00E5F038FCE433CB8DF0A42CFCE5F03BF8F5
:1001CE00EE8AF0A42CFCE5F038F8E433CF89F0A4E5
:1001DE002CFCE5F038CF3400CE89F0A42FFFE5F0EB
:1001EE003EFEE433C98DF0A42EFEE5F039CD8AF043
:1001FE00A42FFFE5F03EFEE43DFD33D0E0FB5007BB
:10020E000BBB000F0202D8EC2CFCEF33FFEE33FEDB
:06021E00ED33FD0202B009
:1002240075F020800E75F010800575F0087D007E55
:10023400007F003392D530D5031204EDEC33401027
:10024400EF33FFEE33FEED33FDEC33FCD5F0ED225E
:0E025400E5F0247EA2D513CC92E7CDCEFF229A
:10026200EDD2E7CD33EC3392D524814006E4FFFE94
:10027200FDFC22FCE4CFCECDCC24E0501174FF80F3
:10028200EDC3CC13CCCD13CDCE13CECF13CF047090
:07029200F030D5DE0204ED9F
:10029900E9D2E7C933E833F892D5EDD2E7CD33ECAB
:0702A90033FC5002B2D52224
:1002B000EC30E7100FBF000C0EBE00080DBD0004AF
:1002C0000BEB6014A2D5EB13FCED92E7FD2274FF5B
:1002D000FCFDFEFF22E480F8A2D574FF13FC7D80B4
:0302E000E480EFC8
:030000000208985B
:0C089800787FE4F6D8FD7581440208DF8B
:1002E300E709F608DFFA8046E709F208DFFA803EFD
:1002F30088828C83E709F0A3DFFA8032E309F608EA
:10030300DFFA8078E309F208DFFA807088828C8351
:10031300E309F0A3DFFA806489828A83E0A3F60805
:10032300DFFA805889828A83E0A3F208DFFA804CDF
:1003330080D280FA80C680D4806980F280338010B6
:1003430080A680EA809A80A880DA80E280CA80331F
:1003530089828A83ECFAE493A3C8C582C8CCC58397
:10036300CCF0A3C8C582C8CCC583CCDFE9DEE78067
:100373000D89828A83E493A3F608DFF9ECFAA9F0E6
:10038300EDFB2289828A83ECFAE0A3C8C582C8CC3C
:10039300C583CCF0A3C8C582C8CCC583CCDFEADE55
:1003A300E880DB89828A83E493A3F208DFF980CCB7
:1003B30088F0EF60010E4E60C388F0ED2402B404B0
:1003C3000050B9F582EB2402B4040050AF23234557
:0603D30082239003337346
:1003D900BB010689828A83E0225002E722BBFE0222
:0903E900E32289828A83E4932255
:1003F200BB010CE58229F582E5833AF583E02250C0
:1004020006E92582F8E622BBFE06E92582F8E22209
:0D041200E58229F582E5833AF583E4932223
:10041F0075F008758200EF2FFFEE33FECD33CDCC94
:10042F0033CCC58233C5829BED9AEC99E582984017
:10043F000CF582EE9BFEED9AFDEC99FC0FD5F0D6F4
:10044F00E4CEFBE4CDFAE4CCF9A88222B800C1B91E
:10045F000059BA002DEC8BF084CFCECDFCE5F0CB5C
:10046F00F97818EF2FFFEE33FEED33FDEC33FCEB95
:10047F0033FB10D703994004EB99FB0FD8E5E4F950
:10048F00FA227818EF2FFFEE33FEED33FDEC33FC3D
:10049F00C933C910D7059BE99A4007EC9BFCE99A31
:1004AF00F90FD8E0E4C9FAE4CCFB2275F010EF2F76
:1004BF00FFEE33FEED33FDCC33CCC833C810D70776
:1004CF009BEC9AE899400AED9BFDEC9AFCE899F8B1
:0E04DF000FD5F0DAE4CDFBE4CCFAE4C8F92244
:0E04ED00C3E49FFFE49EFEE49DFDE49CFC2220
:1004FB00EB9FF5F0EA9E42F0E99D42F0EC6480C878
:06050B0064809845F02217
:10051100EB9FF5F0EA9E42F0E99D42F0E89C45F040
:0105210022B7
:10052200E8600FEFC333FFEE33FEED33FDEC33FC37
:03053200D8F122DB
:0C053500E6FC08E6FD08E6FE08E6FF22F2
:0D054100E6FB08E6F908E6FA08E6CBF8222A
:0C054E00ECF608EDF608EEF608EFF622D9
:1008A40002055AE493A3F8E493A34003F68001F20B
:1008B40008DFF48029E493A3F85407240CC8C33355
:1008C400C4540F4420C8834004F456800146F6DF24
:1008D400E4800B0102040810204080900B14E47E95
:1008E400019360BCA3FF543F30E509541FFEE49319
:1008F400A360010ECF54C025E060A840B8E493A3E0
:10090400FAE493A3F8E493A3C8C582C8CAC583CA0A
:10091400F0A3C8C582C8CAC583CADFE9DEE780BEC2
:010B2F0000C5
:00000001FF
